:060000000A128A11FC2F18
:100F8000F001F1017108803AFF0083307F02031DF8
:100F9000CB2FE8307002031808008312031391016D
:100FA0008C1CD02F8C1091010130F0070318F10A2E
:100FB0000030F107C22F8316031386018312031337
:100FC0008601FA308316031392001C308312031338
:100FD00092009101FF308312031386000A128A11D6
:100FE000C0270A128A118312031386010A128A117A
:100FF000C0270A128A11EA2F83010A128A11DB2FF5
:02400E0039FF78
:00000001FF
